{
  "_format": "hh-sol-artifact-1",
  "contractName": "Agrowchain",
  "sourceName": "contracts/Agrowchain.sol",
  "abi": [
    {
      "inputs": [],
      "stateMutability": "nonpayable",
      "type": "constructor"
    },
    {
      "anonymous": false,
      "inputs": [
        {
          "indexed": false,
          "internalType": "uint256",
          "name": "id",
          "type": "uint256"
        },
        {
          "indexed": false,
          "internalType": "string",
          "name": "cropName",
          "type": "string"
        },
        {
          "indexed": false,
          "internalType": "address",
          "name": "farmer",
          "type": "address"
        },
        {
          "indexed": false,
          "internalType": "uint256",
          "name": "price",
          "type": "uint256"
        }
      ],
      "name": "BatchCreated",
      "type": "event"
    },
    {
      "anonymous": false,
      "inputs": [
        {
          "indexed": false,
          "internalType": "uint256",
          "name": "id",
          "type": "uint256"
        },
        {
          "indexed": false,
          "internalType": "string",
          "name": "status",
          "type": "string"
        }
      ],
      "name": "BatchStatusUpdated",
      "type": "event"
    },
    {
      "anonymous": false,
      "inputs": [
        {
          "indexed": false,
          "internalType": "uint256",
          "name": "id",
          "type": "uint256"
        },
        {
          "indexed": false,
          "internalType": "address",
          "name": "farmer",
          "type": "address"
        },
        {
          "indexed": false,
          "internalType": "uint256",
          "name": "payout",
          "type": "uint256"
        },
        {
          "indexed": false,
          "internalType": "uint256",
          "name": "newTrustScore",
          "type": "uint256"
        }
      ],
      "name": "DeliveryCompleted",
      "type": "event"
    },
    {
      "anonymous": false,
      "inputs": [
        {
          "indexed": false,
          "internalType": "uint256",
          "name": "id",
          "type": "uint256"
        },
        {
          "indexed": false,
          "internalType": "address",
          "name": "retailer",
          "type": "address"
        },
        {
          "indexed": false,
          "internalType": "uint256",
          "name": "amount",
          "type": "uint256"
        }
      ],
      "name": "FundsLockedInEscrow",
      "type": "event"
    },
    {
      "anonymous": false,
      "inputs": [
        {
          "indexed": false,
          "internalType": "address",
          "name": "account",
          "type": "address"
        },
        {
          "indexed": false,
          "internalType": "string",
          "name": "role",
          "type": "string"
        }
      ],
      "name": "RoleRevoked",
      "type": "event"
    },
    {
      "inputs": [
        {
          "internalType": "address",
          "name": "_distributor",
          "type": "address"
        }
      ],
      "name": "addDistributor",
      "outputs": [],
      "stateMutability": "nonpayable",
      "type": "function"
    },
    {
      "inputs": [
        {
          "internalType": "address",
          "name": "_farmer",
          "type": "address"
        }
      ],
      "name": "addFarmer",
      "outputs": [],
      "stateMutability": "nonpayable",
      "type": "function"
    },
    {
      "inputs": [
        {
          "internalType": "address",
          "name": "_retailer",
          "type": "address"
        }
      ],
      "name": "addRetailer",
      "outputs": [],
      "stateMutability": "nonpayable",
      "type": "function"
    },
    {
      "inputs": [],
      "name": "admin",
      "outputs": [
        {
          "internalType": "address",
          "name": "",
          "type": "address"
        }
      ],
      "stateMutability": "view",
      "type": "function"
    },
    {
      "inputs": [],
      "name": "batchCount",
      "outputs": [
        {
          "internalType": "uint256",
          "name": "",
          "type": "uint256"
        }
      ],
      "stateMutability": "view",
      "type": "function"
    },
    {
      "inputs": [
        {
          "internalType": "uint256",
          "name": "",
          "type": "uint256"
        }
      ],
      "name": "batches",
      "outputs": [
        {
          "internalType": "uint256",
          "name": "id",
          "type": "uint256"
        },
        {
          "internalType": "string",
          "name": "cropName",
          "type": "string"
        },
        {
          "internalType": "string",
          "name": "origin",
          "type": "string"
        },
        {
          "internalType": "string",
          "name": "quality",
          "type": "string"
        },
        {
          "internalType": "uint256",
          "name": "price",
          "type": "uint256"
        },
        {
          "internalType": "string",
          "name": "status",
          "type": "string"
        },
        {
          "internalType": "address payable",
          "name": "farmer",
          "type": "address"
        },
        {
          "internalType": "address payable",
          "name": "distributor",
          "type": "address"
        },
        {
          "internalType": "address payable",
          "name": "retailer",
          "type": "address"
        },
        {
          "internalType": "string",
          "name": "imageHash",
          "type": "string"
        },
        {
          "internalType": "bool",
          "name": "isFunded",
          "type": "bool"
        }
      ],
      "stateMutability": "view",
      "type": "function"
    },
    {
      "inputs": [
        {
          "internalType": "uint256",
          "name": "_id",
          "type": "uint256"
        }
      ],
      "name": "completeDelivery",
      "outputs": [],
      "stateMutability": "nonpayable",
      "type": "function"
    },
    {
      "inputs": [
        {
          "internalType": "string",
          "name": "_cropName",
          "type": "string"
        },
        {
          "internalType": "string",
          "name": "_origin",
          "type": "string"
        },
        {
          "internalType": "string",
          "name": "_quality",
          "type": "string"
        },
        {
          "internalType": "uint256",
          "name": "_price",
          "type": "uint256"
        },
        {
          "internalType": "string",
          "name": "_imageHash",
          "type": "string"
        }
      ],
      "name": "createBatch",
      "outputs": [],
      "stateMutability": "nonpayable",
      "type": "function"
    },
    {
      "inputs": [
        {
          "internalType": "address",
          "name": "",
          "type": "address"
        }
      ],
      "name": "distributors",
      "outputs": [
        {
          "internalType": "bool",
          "name": "",
          "type": "bool"
        }
      ],
      "stateMutability": "view",
      "type": "function"
    },
    {
      "inputs": [
        {
          "internalType": "address",
          "name": "",
          "type": "address"
        }
      ],
      "name": "farmers",
      "outputs": [
        {
          "internalType": "bool",
          "name": "",
          "type": "bool"
        }
      ],
      "stateMutability": "view",
      "type": "function"
    },
    {
      "inputs": [
        {
          "internalType": "uint256",
          "name": "_id",
          "type": "uint256"
        }
      ],
      "name": "orderBatch",
      "outputs": [],
      "stateMutability": "payable",
      "type": "function"
    },
    {
      "inputs": [
        {
          "internalType": "address",
          "name": "_distributor",
          "type": "address"
        }
      ],
      "name": "removeDistributor",
      "outputs": [],
      "stateMutability": "nonpayable",
      "type": "function"
    },
    {
      "inputs": [
        {
          "internalType": "address",
          "name": "_farmer",
          "type": "address"
        }
      ],
      "name": "removeFarmer",
      "outputs": [],
      "stateMutability": "nonpayable",
      "type": "function"
    },
    {
      "inputs": [
        {
          "internalType": "address",
          "name": "_retailer",
          "type": "address"
        }
      ],
      "name": "removeRetailer",
      "outputs": [],
      "stateMutability": "nonpayable",
      "type": "function"
    },
    {
      "inputs": [
        {
          "internalType": "address",
          "name": "",
          "type": "address"
        }
      ],
      "name": "retailers",
      "outputs": [
        {
          "internalType": "bool",
          "name": "",
          "type": "bool"
        }
      ],
      "stateMutability": "view",
      "type": "function"
    },
    {
      "inputs": [
        {
          "internalType": "address",
          "name": "",
          "type": "address"
        }
      ],
      "name": "trustScore",
      "outputs": [
        {
          "internalType": "uint256",
          "name": "",
          "type": "uint256"
        }
      ],
      "stateMutability": "view",
      "type": "function"
    },
    {
      "inputs": [
        {
          "internalType": "uint256",
          "name": "_id",
          "type": "uint256"
        },
        {
          "internalType": "string",
          "name": "_newStatus",
          "type": "string"
        }
      ],
      "name": "updateBatchStatus",
      "outputs": [],
      "stateMutability": "nonpayable",
      "type": "function"
    }
  ],
  "bytecode": "0x6080604052348015600f57600080fd5b50600080546001600160a01b031916331790556117b9806100316000396000f3fe6080604052600436106100fe5760003560e01c806382c9804a11610095578063cc64278411610064578063cc642784146102e2578063d8c0a38314610312578063e6bf3fdc14610332578063f851a44014610352578063f8842f781461038a57600080fd5b806382c9804a1461023b5780638ec4f5051461025b5780639a268f351461027b578063b32c4d8d146102ab57600080fd5b8063589c1eac116100d1578063589c1eac146101bb57806370099ec8146101db5780637250e224146101fb57806380c3f96d1461021b57600080fd5b806306f1305614610103578063401b21681461012c578063534a84651461016c57806357c1f9e214610199575b600080fd5b34801561010f57600080fd5b5061011960015481565b6040519081526020015b60405180910390f35b34801561013857600080fd5b5061015c6101473660046111fa565b60046020526000908152604090205460ff1681565b6040519015158152602001610123565b34801561017857600080fd5b506101196101873660046111fa565b60026020526000908152604090205481565b3480156101a557600080fd5b506101b96101b43660046111fa565b61039d565b005b3480156101c757600080fd5b506101b96101d63660046112cf565b610449565b3480156101e757600080fd5b506101b96101f63660046111fa565b610611565b34801561020757600080fd5b506101b96102163660046111fa565b6106aa565b34801561022757600080fd5b506101b96102363660046111fa565b6106f8565b34801561024757600080fd5b506101b9610256366004611316565b610746565b34801561026757600080fd5b506101b96102763660046111fa565b6109b4565b34801561028757600080fd5b5061015c6102963660046111fa565b60066020526000908152604090205460ff1681565b3480156102b757600080fd5b506102cb6102c6366004611316565b610a02565b6040516101239b9a99989796959493929190611375565b3480156102ee57600080fd5b5061015c6102fd3660046111fa565b60056020526000908152604090205460ff1681565b34801561031e57600080fd5b506101b961032d366004611427565b610d14565b34801561033e57600080fd5b506101b961034d3660046111fa565b610f47565b34801561035e57600080fd5b50600054610372906001600160a01b031681565b6040516001600160a01b039091168152602001610123565b6101b9610398366004611316565b610fde565b6000546001600160a01b031633146103d05760405162461bcd60e51b81526004016103c7906114f1565b60405180910390fd5b6001600160a01b038116600081815260056020908152604091829020805460ff1916905581519283528201819052600b908201526a2234b9ba3934b13aba37b960a91b60608201527f9f43a01c0d4ff5aff09b3b9b472df707ceefd3f948f8942f10fa1562a8921304906080015b60405180910390a150565b3360009081526005602052604090205460ff166104bc5760405162461bcd60e51b815260206004820152602b60248201527f4f6e6c79206469737472696275746f72732063616e207570646174652074726160448201526a6e7369742073746174757360a81b60648201526084016103c7565b6000828152600360205260409020600a81015460ff166105285760405162461bcd60e51b815260206004820152602160248201527f43616e6e6f74207472616e73706f727420756e66756e646564206261746368656044820152607360f81b60648201526084016103c7565b60078101546001600160a01b0316610553576007810180546001600160a01b031916331790556105c4565b60078101546001600160a01b031633146105c45760405162461bcd60e51b815260206004820152602c60248201527f426174636820616c726561647920636c61696d656420627920616e6f7468657260448201526b103234b9ba3934b13aba37b960a11b60648201526084016103c7565b600581016105d283826115b1565b507fbb2737eddbbe3ab38f08c39ade7889850d32127473a46253c4494f1bd019c6cc8383604051610604929190611670565b60405180910390a1505050565b6000546001600160a01b0316331461063b5760405162461bcd60e51b81526004016103c7906114f1565b6001600160a01b038116600081815260066020908152604091829020805460ff1916905581519283528201819052600890820152672932ba30b4b632b960c11b60608201527f9f43a01c0d4ff5aff09b3b9b472df707ceefd3f948f8942f10fa1562a89213049060800161043e565b6000546001600160a01b031633146106d45760405162461bcd60e51b81526004016103c7906114f1565b6001600160a01b03166000908152600560205260409020805460ff19166001179055565b6000546001600160a01b031633146107225760405162461bcd60e51b81526004016103c7906114f1565b6001600160a01b03166000908152600460205260409020805460ff19166001179055565b3360009081526005602052604090205460ff168061077357503360009081526006602052604090205460ff165b6107ae5760405162461bcd60e51b815260206004820152600c60248201526b155b985d5d1a1bdc9a5e995960a21b60448201526064016103c7565b6000818152600360205260409020600a81015460ff166108055760405162461bcd60e51b81526020600482015260126024820152714e6f2066756e647320696e20657363726f7760701b60448201526064016103c7565b604080518082018252600981526811195b1a5d995c995960ba1b602090910152517f84d438931365e92021ed104a3ccc6ebb11094926f21ebfcbd81ad9746006c51090610856906005840190611691565b60405180910390200361089f5760405162461bcd60e51b8152602060048201526011602482015270105b1c9958591e4819195b1a5d995c9959607a1b60448201526064016103c7565b60408051808201909152600981526811195b1a5d995c995960ba1b602082015260058201906108ce90826115b1565b506004810154600a8201805460ff1916905560068201546040516001600160a01b039091169082156108fc029083906000818181858888f1935050505015801561091c573d6000803e3d6000fd5b5060068201546001600160a01b031660009081526002602052604081208054600a929061094a90849061171c565b909155505060068201546001600160a01b03166000818152600260209081526040918290205482518781529182019390935290810183905260608101919091527f3cb0212f34264f6519dfe1f2a11b611a629954a269411d82ad183cd474cda0de90608001610604565b6000546001600160a01b031633146109de5760405162461bcd60e51b81526004016103c7906114f1565b6001600160a01b03166000908152600660205260409020805460ff19166001179055565b60036020526000908152604090208054600182018054919291610a2490611528565b80601f0160208091040260200160405190810160405280929190818152602001828054610a5090611528565b8015610a9d5780601f10610a7257610100808354040283529160200191610a9d565b820191906000526020600020905b815481529060010190602001808311610a8057829003601f168201915b505050505090806002018054610ab290611528565b80601f0160208091040260200160405190810160405280929190818152602001828054610ade90611528565b8015610b2b5780601f10610b0057610100808354040283529160200191610b2b565b820191906000526020600020905b815481529060010190602001808311610b0e57829003601f168201915b505050505090806003018054610b4090611528565b80601f0160208091040260200160405190810160405280929190818152602001828054610b6c90611528565b8015610bb95780601f10610b8e57610100808354040283529160200191610bb9565b820191906000526020600020905b815481529060010190602001808311610b9c57829003601f168201915b505050505090806004015490806005018054610bd490611528565b80601f0160208091040260200160405190810160405280929190818152602001828054610c0090611528565b8015610c4d5780601f10610c2257610100808354040283529160200191610c4d565b820191906000526020600020905b815481529060010190602001808311610c3057829003601f168201915b5050505060068301546007840154600885015460098601805495966001600160a01b03948516969385169550939091169291610c8890611528565b80601f0160208091040260200160405190810160405280929190818152602001828054610cb490611528565b8015610d015780601f10610cd657610100808354040283529160200191610d01565b820191906000526020600020905b815481529060010190602001808311610ce457829003601f168201915b505050600a909301549192505060ff168b565b3360009081526004602052604090205460ff16610d865760405162461bcd60e51b815260206004820152602a60248201527f4f6e6c792072656769737465726564206661726d6572732063616e20637265616044820152697465206261746368657360b01b60648201526084016103c7565b60018054906000610d9683611735565b909155505060408051610160810182526001805480835260208084018a81528486018a9052606085018990526080850188905285518087018752600981526812185c9d995cdd195960ba1b8184015260a08601523360c0860152600060e08601819052610100860181905261012086018890526101408601819052928352600390915293902082518155925191929190820190610e3390826115b1565b5060408201516002820190610e4890826115b1565b5060608201516003820190610e5d90826115b1565b506080820151600482015560a08201516005820190610e7c90826115b1565b5060c08201516006820180546001600160a01b039283166001600160a01b03199182161790915560e08401516007840180549184169183169190911790556101008401516008840180549190931691161790556101208201516009820190610ee490826115b1565b506101409190910151600a909101805460ff19169115159190911790556001546040517f9e1a4c9f9c1b1a06cf8079472fa44345759d5f173e6134740adae2e4f698c52691610f389188903390879061174e565b60405180910390a15050505050565b6000546001600160a01b03163314610f715760405162461bcd60e51b81526004016103c7906114f1565b6001600160a01b038116600081815260046020908152604091829020805460ff1916905581519283528201819052600690820152652330b936b2b960d11b60608201527f9f43a01c0d4ff5aff09b3b9b472df707ceefd3f948f8942f10fa1562a89213049060800161043e565b3360009081526006602052604090205460ff166110495760405162461bcd60e51b815260206004820152602360248201527f4f6e6c7920726567697374657265642072657461696c6572732063616e206f726044820152623232b960e91b60648201526084016103c7565b60008111801561105b57506001548111155b61109a5760405162461bcd60e51b815260206004820152601060248201526f125b9d985b1a590810985d18da08125160821b60448201526064016103c7565b6000818152600360205260409020600a81015460ff16156110fd5760405162461bcd60e51b815260206004820152601760248201527f426174636820697320616c72656164792066756e64656400000000000000000060448201526064016103c7565b806004015434146111505760405162461bcd60e51b815260206004820152601f60248201527f4d7573742073656e6420657861637420707269636520746f20657363726f770060448201526064016103c7565b6008810180546001600160a01b0319163317905560408051808201909152601981527f4f726465726564202d2046756e647320696e20457363726f7700000000000000602082015260058201906111a790826115b1565b50600a8101805460ff1916600117905560408051838152336020820152348183015290517f36d6b25b52c9f6e56bc9a69c6816e3f4425bf2ef530d86b0310040e4f7074509916060908290030190a15050565b60006020828403121561120c57600080fd5b81356001600160a01b038116811461122357600080fd5b9392505050565b634e487b7160e01b600052604160045260246000fd5b600082601f83011261125157600080fd5b813567ffffffffffffffff81111561126b5761126b61122a565b604051601f8201601f19908116603f0116810167ffffffffffffffff8111828210171561129a5761129a61122a565b6040528181528382016020018510156112b257600080fd5b816020850160208301376000918101602001919091529392505050565b600080604083850312156112e257600080fd5b82359150602083013567ffffffffffffffff81111561130057600080fd5b61130c85828601611240565b9150509250929050565b60006020828403121561132857600080fd5b5035919050565b6000815180845260005b8181101561135557602081850181015186830182015201611339565b506000602082860101526020601f19601f83011685010191505092915050565b8b81526101606020820152600061139061016083018d61132f565b82810360408401526113a2818d61132f565b905082810360608401526113b6818c61132f565b905089608084015282810360a08401526113d0818a61132f565b6001600160a01b0389811660c086015288811660e086015287166101008501529050828103610120840152611405818661132f565b91505061141761014083018415159052565b9c9b505050505050505050505050565b600080600080600060a0868803121561143f57600080fd5b853567ffffffffffffffff81111561145657600080fd5b61146288828901611240565b955050602086013567ffffffffffffffff81111561147f57600080fd5b61148b88828901611240565b945050604086013567ffffffffffffffff8111156114a857600080fd5b6114b488828901611240565b93505060608601359150608086013567ffffffffffffffff8111156114d857600080fd5b6114e488828901611240565b9150509295509295909350565b6020808252601d908201527f4f6e6c792061646d696e2063616e207265676973746572207573657273000000604082015260600190565b600181811c9082168061153c57607f821691505b60208210810361155c57634e487b7160e01b600052602260045260246000fd5b50919050565b601f8211156115ac57806000526020600020601f840160051c810160208510156115895750805b601f840160051c820191505b818110156115a95760008155600101611595565b50505b505050565b815167ffffffffffffffff8111156115cb576115cb61122a565b6115df816115d98454611528565b84611562565b6020601f82116001811461161357600083156115fb5750848201515b600019600385901b1c1916600184901b1784556115a9565b600084815260208120601f198516915b828110156116435787850151825560209485019460019092019101611623565b50848210156116615786840151600019600387901b60f8161c191681555b50505050600190811b01905550565b828152604060208201526000611689604083018461132f565b949350505050565b600080835461169f81611528565b6001821680156116b657600181146116cb576116fb565b60ff19831686528115158202860193506116fb565b86600052602060002060005b838110156116f3578154888201526001909101906020016116d7565b505081860193505b509195945050505050565b634e487b7160e01b600052601160045260246000fd5b8082018082111561172f5761172f611706565b92915050565b60006001820161174757611747611706565b5060010190565b848152608060208201526000611767608083018661132f565b6001600160a01b0394909416604083015250606001529291505056fea264697066735822122013fc791d03ddfa9a165f11f0edce82081ef69254a1942bac3b816f4d351d445164736f6c634300081c0033",
  "linkReferences": {},
  "deployedLinkReferences": {}
}