{
  "_format": "hh-sol-artifact-1",
  "contractName": "Agrowchain",
  "sourceName": "contracts/Agrowchain.sol",
  "abi": [
    {
      "inputs": [],
      "stateMutability": "nonpayable",
      "type": "constructor"
    },
    {
      "anonymous": false,
      "inputs": [
        {
          "indexed": false,
          "internalType": "uint256",
          "name": "id",
          "type": "uint256"
        },
        {
          "indexed": false,
          "internalType": "string",
          "name": "cropName",
          "type": "string"
        },
        {
          "indexed": false,
          "internalType": "address",
          "name": "farmer",
          "type": "address"
        },
        {
          "indexed": false,
          "internalType": "uint256",
          "name": "price",
          "type": "uint256"
        }
      ],
      "name": "BatchCreated",
      "type": "event"
    },
    {
      "anonymous": false,
      "inputs": [
        {
          "indexed": false,
          "internalType": "uint256",
          "name": "id",
          "type": "uint256"
        },
        {
          "indexed": false,
          "internalType": "string",
          "name": "status",
          "type": "string"
        }
      ],
      "name": "BatchStatusUpdated",
      "type": "event"
    },
    {
      "anonymous": false,
      "inputs": [
        {
          "indexed": false,
          "internalType": "uint256",
          "name": "id",
          "type": "uint256"
        },
        {
          "indexed": false,
          "internalType": "address",
          "name": "farmer",
          "type": "address"
        },
        {
          "indexed": false,
          "internalType": "uint256",
          "name": "payout",
          "type": "uint256"
        },
        {
          "indexed": false,
          "internalType": "uint256",
          "name": "newTrustScore",
          "type": "uint256"
        }
      ],
      "name": "DeliveryCompleted",
      "type": "event"
    },
    {
      "anonymous": false,
      "inputs": [
        {
          "indexed": false,
          "internalType": "uint256",
          "name": "id",
          "type": "uint256"
        },
        {
          "indexed": false,
          "internalType": "address",
          "name": "retailer",
          "type": "address"
        },
        {
          "indexed": false,
          "internalType": "uint256",
          "name": "amount",
          "type": "uint256"
        }
      ],
      "name": "FundsLockedInEscrow",
      "type": "event"
    },
    {
      "inputs": [
        {
          "internalType": "address",
          "name": "_distributor",
          "type": "address"
        }
      ],
      "name": "addDistributor",
      "outputs": [],
      "stateMutability": "nonpayable",
      "type": "function"
    },
    {
      "inputs": [
        {
          "internalType": "address",
          "name": "_farmer",
          "type": "address"
        }
      ],
      "name": "addFarmer",
      "outputs": [],
      "stateMutability": "nonpayable",
      "type": "function"
    },
    {
      "inputs": [
        {
          "internalType": "address",
          "name": "_retailer",
          "type": "address"
        }
      ],
      "name": "addRetailer",
      "outputs": [],
      "stateMutability": "nonpayable",
      "type": "function"
    },
    {
      "inputs": [],
      "name": "admin",
      "outputs": [
        {
          "internalType": "address",
          "name": "",
          "type": "address"
        }
      ],
      "stateMutability": "view",
      "type": "function"
    },
    {
      "inputs": [],
      "name": "batchCount",
      "outputs": [
        {
          "internalType": "uint256",
          "name": "",
          "type": "uint256"
        }
      ],
      "stateMutability": "view",
      "type": "function"
    },
    {
      "inputs": [
        {
          "internalType": "uint256",
          "name": "",
          "type": "uint256"
        }
      ],
      "name": "batches",
      "outputs": [
        {
          "internalType": "uint256",
          "name": "id",
          "type": "uint256"
        },
        {
          "internalType": "string",
          "name": "cropName",
          "type": "string"
        },
        {
          "internalType": "string",
          "name": "origin",
          "type": "string"
        },
        {
          "internalType": "string",
          "name": "quality",
          "type": "string"
        },
        {
          "internalType": "uint256",
          "name": "price",
          "type": "uint256"
        },
        {
          "internalType": "string",
          "name": "status",
          "type": "string"
        },
        {
          "internalType": "address payable",
          "name": "farmer",
          "type": "address"
        },
        {
          "internalType": "address payable",
          "name": "distributor",
          "type": "address"
        },
        {
          "internalType": "address payable",
          "name": "retailer",
          "type": "address"
        },
        {
          "internalType": "string",
          "name": "imageHash",
          "type": "string"
        },
        {
          "internalType": "bool",
          "name": "isFunded",
          "type": "bool"
        }
      ],
      "stateMutability": "view",
      "type": "function"
    },
    {
      "inputs": [
        {
          "internalType": "uint256",
          "name": "_id",
          "type": "uint256"
        }
      ],
      "name": "completeDelivery",
      "outputs": [],
      "stateMutability": "nonpayable",
      "type": "function"
    },
    {
      "inputs": [
        {
          "internalType": "string",
          "name": "_cropName",
          "type": "string"
        },
        {
          "internalType": "string",
          "name": "_origin",
          "type": "string"
        },
        {
          "internalType": "string",
          "name": "_quality",
          "type": "string"
        },
        {
          "internalType": "uint256",
          "name": "_price",
          "type": "uint256"
        },
        {
          "internalType": "string",
          "name": "_imageHash",
          "type": "string"
        }
      ],
      "name": "createBatch",
      "outputs": [],
      "stateMutability": "nonpayable",
      "type": "function"
    },
    {
      "inputs": [
        {
          "internalType": "address",
          "name": "",
          "type": "address"
        }
      ],
      "name": "distributors",
      "outputs": [
        {
          "internalType": "bool",
          "name": "",
          "type": "bool"
        }
      ],
      "stateMutability": "view",
      "type": "function"
    },
    {
      "inputs": [
        {
          "internalType": "address",
          "name": "",
          "type": "address"
        }
      ],
      "name": "farmers",
      "outputs": [
        {
          "internalType": "bool",
          "name": "",
          "type": "bool"
        }
      ],
      "stateMutability": "view",
      "type": "function"
    },
    {
      "inputs": [
        {
          "internalType": "uint256",
          "name": "_id",
          "type": "uint256"
        }
      ],
      "name": "orderBatch",
      "outputs": [],
      "stateMutability": "payable",
      "type": "function"
    },
    {
      "inputs": [
        {
          "internalType": "address",
          "name": "",
          "type": "address"
        }
      ],
      "name": "retailers",
      "outputs": [
        {
          "internalType": "bool",
          "name": "",
          "type": "bool"
        }
      ],
      "stateMutability": "view",
      "type": "function"
    },
    {
      "inputs": [
        {
          "internalType": "address",
          "name": "",
          "type": "address"
        }
      ],
      "name": "trustScore",
      "outputs": [
        {
          "internalType": "uint256",
          "name": "",
          "type": "uint256"
        }
      ],
      "stateMutability": "view",
      "type": "function"
    },
    {
      "inputs": [
        {
          "internalType": "uint256",
          "name": "_id",
          "type": "uint256"
        },
        {
          "internalType": "string",
          "name": "_newStatus",
          "type": "string"
        }
      ],
      "name": "updateBatchStatus",
      "outputs": [],
      "stateMutability": "nonpayable",
      "type": "function"
    }
  ],
  "bytecode": "0x6080604052348015600f57600080fd5b50600080546001600160a01b031916331790556114d9806100316000396000f3fe6080604052600436106100dd5760003560e01c80638ec4f5051161007f578063cc64278411610059578063cc64278414610281578063d8c0a383146102b1578063f851a440146102d1578063f8842f781461030957600080fd5b80638ec4f505146101fa5780639a268f351461021a578063b32c4d8d1461024a57600080fd5b8063589c1eac116100bb578063589c1eac146101785780637250e2241461019a57806380c3f96d146101ba57806382c9804a146101da57600080fd5b806306f13056146100e2578063401b21681461010b578063534a84651461014b575b600080fd5b3480156100ee57600080fd5b506100f860015481565b6040519081526020015b60405180910390f35b34801561011757600080fd5b5061013b610126366004610f1a565b60046020526000908152604090205460ff1681565b6040519015158152602001610102565b34801561015757600080fd5b506100f8610166366004610f1a565b60026020526000908152604090205481565b34801561018457600080fd5b50610198610193366004610fef565b61031c565b005b3480156101a657600080fd5b506101986101b5366004610f1a565b610461565b3480156101c657600080fd5b506101986101d5366004610f1a565b6104af565b3480156101e657600080fd5b506101986101f5366004611036565b6104fd565b34801561020657600080fd5b50610198610215366004610f1a565b61076b565b34801561022657600080fd5b5061013b610235366004610f1a565b60066020526000908152604090205460ff1681565b34801561025657600080fd5b5061026a610265366004611036565b6107b9565b6040516101029b9a99989796959493929190611095565b34801561028d57600080fd5b5061013b61029c366004610f1a565b60056020526000908152604090205460ff1681565b3480156102bd57600080fd5b506101986102cc366004611147565b610acb565b3480156102dd57600080fd5b506000546102f1906001600160a01b031681565b6040516001600160a01b039091168152602001610102565b610198610317366004611036565b610cfe565b3360009081526005602052604090205460ff166103945760405162461bcd60e51b815260206004820152602b60248201527f4f6e6c79206469737472696275746f72732063616e207570646174652074726160448201526a6e7369742073746174757360a81b60648201526084015b60405180910390fd5b6000828152600360205260409020600a81015460ff166104005760405162461bcd60e51b815260206004820152602160248201527f43616e6e6f74207472616e73706f727420756e66756e646564206261746368656044820152607360f81b606482015260840161038b565b6007810180546001600160a01b0319163317905560058101610422838261129a565b507fbb2737eddbbe3ab38f08c39ade7889850d32127473a46253c4494f1bd019c6cc8383604051610454929190611359565b60405180910390a1505050565b6000546001600160a01b0316331461048b5760405162461bcd60e51b815260040161038b9061137a565b6001600160a01b03166000908152600560205260409020805460ff19166001179055565b6000546001600160a01b031633146104d95760405162461bcd60e51b815260040161038b9061137a565b6001600160a01b03166000908152600460205260409020805460ff19166001179055565b3360009081526005602052604090205460ff168061052a57503360009081526006602052604090205460ff165b6105655760405162461bcd60e51b815260206004820152600c60248201526b155b985d5d1a1bdc9a5e995960a21b604482015260640161038b565b6000818152600360205260409020600a81015460ff166105bc5760405162461bcd60e51b81526020600482015260126024820152714e6f2066756e647320696e20657363726f7760701b604482015260640161038b565b604080518082018252600981526811195b1a5d995c995960ba1b602090910152517f84d438931365e92021ed104a3ccc6ebb11094926f21ebfcbd81ad9746006c5109061060d9060058401906113b1565b6040518091039020036106565760405162461bcd60e51b8152602060048201526011602482015270105b1c9958591e4819195b1a5d995c9959607a1b604482015260640161038b565b60408051808201909152600981526811195b1a5d995c995960ba1b60208201526005820190610685908261129a565b506004810154600a8201805460ff1916905560068201546040516001600160a01b039091169082156108fc029083906000818181858888f193505050501580156106d3573d6000803e3d6000fd5b5060068201546001600160a01b031660009081526002602052604081208054600a929061070190849061143c565b909155505060068201546001600160a01b03166000818152600260209081526040918290205482518781529182019390935290810183905260608101919091527f3cb0212f34264f6519dfe1f2a11b611a629954a269411d82ad183cd474cda0de90608001610454565b6000546001600160a01b031633146107955760405162461bcd60e51b815260040161038b9061137a565b6001600160a01b03166000908152600660205260409020805460ff19166001179055565b600360205260009081526040902080546001820180549192916107db90611211565b80601f016020809104026020016040519081016040528092919081815260200182805461080790611211565b80156108545780601f1061082957610100808354040283529160200191610854565b820191906000526020600020905b81548152906001019060200180831161083757829003601f168201915b50505050509080600201805461086990611211565b80601f016020809104026020016040519081016040528092919081815260200182805461089590611211565b80156108e25780601f106108b7576101008083540402835291602001916108e2565b820191906000526020600020905b8154815290600101906020018083116108c557829003601f168201915b5050505050908060030180546108f790611211565b80601f016020809104026020016040519081016040528092919081815260200182805461092390611211565b80156109705780601f1061094557610100808354040283529160200191610970565b820191906000526020600020905b81548152906001019060200180831161095357829003601f168201915b50505050509080600401549080600501805461098b90611211565b80601f01602080910402602001604051908101604052809291908181526020018280546109b790611211565b8015610a045780601f106109d957610100808354040283529160200191610a04565b820191906000526020600020905b8154815290600101906020018083116109e757829003601f168201915b5050505060068301546007840154600885015460098601805495966001600160a01b03948516969385169550939091169291610a3f90611211565b80601f0160208091040260200160405190810160405280929190818152602001828054610a6b90611211565b8015610ab85780601f10610a8d57610100808354040283529160200191610ab8565b820191906000526020600020905b815481529060010190602001808311610a9b57829003601f168201915b505050600a909301549192505060ff168b565b3360009081526004602052604090205460ff16610b3d5760405162461bcd60e51b815260206004820152602a60248201527f4f6e6c792072656769737465726564206661726d6572732063616e20637265616044820152697465206261746368657360b01b606482015260840161038b565b60018054906000610b4d83611455565b909155505060408051610160810182526001805480835260208084018a81528486018a9052606085018990526080850188905285518087018752600981526812185c9d995cdd195960ba1b8184015260a08601523360c0860152600060e08601819052610100860181905261012086018890526101408601819052928352600390915293902082518155925191929190820190610bea908261129a565b5060408201516002820190610bff908261129a565b5060608201516003820190610c14908261129a565b506080820151600482015560a08201516005820190610c33908261129a565b5060c08201516006820180546001600160a01b039283166001600160a01b03199182161790915560e08401516007840180549184169183169190911790556101008401516008840180549190931691161790556101208201516009820190610c9b908261129a565b506101409190910151600a909101805460ff19169115159190911790556001546040517f9e1a4c9f9c1b1a06cf8079472fa44345759d5f173e6134740adae2e4f698c52691610cef9188903390879061146e565b60405180910390a15050505050565b3360009081526006602052604090205460ff16610d695760405162461bcd60e51b815260206004820152602360248201527f4f6e6c7920726567697374657265642072657461696c6572732063616e206f726044820152623232b960e91b606482015260840161038b565b600081118015610d7b57506001548111155b610dba5760405162461bcd60e51b815260206004820152601060248201526f125b9d985b1a590810985d18da08125160821b604482015260640161038b565b6000818152600360205260409020600a81015460ff1615610e1d5760405162461bcd60e51b815260206004820152601760248201527f426174636820697320616c72656164792066756e646564000000000000000000604482015260640161038b565b80600401543414610e705760405162461bcd60e51b815260206004820152601f60248201527f4d7573742073656e6420657861637420707269636520746f20657363726f7700604482015260640161038b565b6008810180546001600160a01b0319163317905560408051808201909152601981527f4f726465726564202d2046756e647320696e20457363726f770000000000000060208201526005820190610ec7908261129a565b50600a8101805460ff1916600117905560408051838152336020820152348183015290517f36d6b25b52c9f6e56bc9a69c6816e3f4425bf2ef530d86b0310040e4f7074509916060908290030190a15050565b600060208284031215610f2c57600080fd5b81356001600160a01b0381168114610f4357600080fd5b9392505050565b634e487b7160e01b600052604160045260246000fd5b600082601f830112610f7157600080fd5b813567ffffffffffffffff811115610f8b57610f8b610f4a565b604051601f8201601f19908116603f0116810167ffffffffffffffff81118282101715610fba57610fba610f4a565b604052818152838201602001851015610fd257600080fd5b816020850160208301376000918101602001919091529392505050565b6000806040838503121561100257600080fd5b82359150602083013567ffffffffffffffff81111561102057600080fd5b61102c85828601610f60565b9150509250929050565b60006020828403121561104857600080fd5b5035919050565b6000815180845260005b8181101561107557602081850181015186830182015201611059565b506000602082860101526020601f19601f83011685010191505092915050565b8b8152610160602082015260006110b061016083018d61104f565b82810360408401526110c2818d61104f565b905082810360608401526110d6818c61104f565b905089608084015282810360a08401526110f0818a61104f565b6001600160a01b0389811660c086015288811660e086015287166101008501529050828103610120840152611125818661104f565b91505061113761014083018415159052565b9c9b505050505050505050505050565b600080600080600060a0868803121561115f57600080fd5b853567ffffffffffffffff81111561117657600080fd5b61118288828901610f60565b955050602086013567ffffffffffffffff81111561119f57600080fd5b6111ab88828901610f60565b945050604086013567ffffffffffffffff8111156111c857600080fd5b6111d488828901610f60565b93505060608601359150608086013567ffffffffffffffff8111156111f857600080fd5b61120488828901610f60565b9150509295509295909350565b600181811c9082168061122557607f821691505b60208210810361124557634e487b7160e01b600052602260045260246000fd5b50919050565b601f82111561129557806000526020600020601f840160051c810160208510156112725750805b601f840160051c820191505b81811015611292576000815560010161127e565b50505b505050565b815167ffffffffffffffff8111156112b4576112b4610f4a565b6112c8816112c28454611211565b8461124b565b6020601f8211600181146112fc57600083156112e45750848201515b600019600385901b1c1916600184901b178455611292565b600084815260208120601f198516915b8281101561132c578785015182556020948501946001909201910161130c565b508482101561134a5786840151600019600387901b60f8161c191681555b50505050600190811b01905550565b828152604060208201526000611372604083018461104f565b949350505050565b6020808252601d908201527f4f6e6c792061646d696e2063616e207265676973746572207573657273000000604082015260600190565b60008083546113bf81611211565b6001821680156113d657600181146113eb5761141b565b60ff198316865281151582028601935061141b565b86600052602060002060005b83811015611413578154888201526001909101906020016113f7565b505081860193505b509195945050505050565b634e487b7160e01b600052601160045260246000fd5b8082018082111561144f5761144f611426565b92915050565b60006001820161146757611467611426565b5060010190565b848152608060208201526000611487608083018661104f565b6001600160a01b0394909416604083015250606001529291505056fea2646970667358221220677d5d9d696a26cbcd04abbe40c88173084ec48907945bca3a15ef2e117ef90164736f6c634300081c0033",
  "linkReferences": {},
  "deployedLinkReferences": {}
}